:020000040800F2
:1000000000100020753C0008C53C0008C53C0008F5
:1000100000000000000000000000000000000000E0
:10002000000000000000000000000000C53C0008C7
:100030000000000000000000C53C00082904000882
:10004000C53C000849050008C53C0008C53C00083F
:10005000C53C0008C53C0008C53C0008C53C00087C
:1000600000000000C53C0008C53C0008000000007E
:10007000C53C0008C53C0008C53C00080000000065
:10008000C53C0008C53C000800000000C53C000855
:100090000000000075150008C53C0008C53C0008BC
:1000A00000000000C53C0008C53C0008C53C000835
:1000B00061290008000000000000000000000000AE
:1000C00002B4714649084900095C49008E4402BCEB
:1000D0007047C046002243088B4274D303098B4209
:1000E0005FD3030A8B4244D3030B8B4228D3030C08
:1000F0008B420DD3FF22090212BA030C8B4202D3AA
:100100001212090265D0030B8B4219D300E0090AD1
:10011000C30B8B4201D3CB03C01A5241830B8B42DA
:1001200001D38B03C01A5241430B8B4201D34B03C3
:10013000C01A5241030B8B4201D30B03C01A524128
:10014000C30A8B4201D3CB02C01A5241830A8B42AD
:1001500001D38B02C01A5241430A8B4201D34B0296
:10016000C01A5241030A8B4201D30B02C01A5241FA
:10017000CDD2C3098B4201D3CB01C01A52418309AE
:100180008B4201D38B01C01A524143098B4201D3E8
:100190004B01C01A524103098B4201D30B01C01A13
:1001A0005241C3088B4201D3CB00C01A524183088D
:1001B0008B4201D38B00C01A524143088B4201D3BA
:1001C0004B00C01A5241411A00D20146524110461A
:1001D0007047FFE701B5002000F0F0F802BDC0460F
:1001E0000029F7D076E7704703460B437FD40022FF
:1001F00043088B4274D303098B425FD3030A8B42BB
:1002000044D3030B8B4228D3030C8B420DD3FF2224
:10021000090212BA030C8B4202D31212090265D0F2
:10022000030B8B4219D300E0090AC30B8B4201D3A5
:10023000CB03C01A5241830B8B4201D38B03C01AEC
:100240005241430B8B4201D34B03C01A5241030B63
:100250008B4201D30B03C01A5241C30A8B4201D314
:10026000CB02C01A5241830A8B4201D38B02C01ABF
:100270005241430A8B4201D34B02C01A5241030A36
:100280008B4201D30B02C01A5241CDD2C3098B421B
:1002900001D3CB01C01A524183098B4201D38B0198
:1002A000C01A524143098B4201D34B01C01A52413B
:1002B00003098B4201D30B01C01A5241C3088B4280
:1002C00001D3CB00C01A524183088B4201D38B006B
:1002D000C01A524143088B4201D34B00C01A52410D
:1002E000411A00D201465241104670475DE0CA0FE4
:1002F00000D04942031000D34042534000229C46A4
:1003000003098B422DD3030A8B4212D3FC228901AD
:1003100012BA030A8B420CD3890192118B4208D383
:10032000890192118B4204D389013AD0921100E0E5
:100330008909C3098B4201D3CB01C01A52418309F9
:100340008B4201D38B01C01A524143098B4201D326
:100350004B01C01A524103098B4201D30B01C01A51
:100360005241C3088B4201D3CB00C01A52418308CB
:100370008B4201D38B00C01A5241D9D243088B4221
:1003800001D34B00C01A5241411A00D201466346C4
:1003900052415B10104601D34042002B00D5494228
:1003A000704763465B1000D3404201B5002000F067
:1003B00005F802BD0029F8D016E770477047C0461F
:1003C0000023C25C0133002AFBD1581E7047000095
:1003D00003B47146490840004900095E49008E4453
:1003E00003BC7047704700000B4910B50A680B4BFF
:1003F0000B4C10181B1B08601B1A002B03DD09494E
:100400000B60100010BD0A6003F0A2FD0C23012256
:1004100003605242F5E7C0460000002000100020B3
:1004200080010000A00000200F4A30B513680025AD
:10043000013313600D4B0E4C1A680E4BD20305D5D9
:100440001868596800196941186059601868596836
:100450000019694118605960074B084A1968116012
:1004600000221A6030BDC0469000002010E000E07D
:1004700080BB0000A8000020BC0000209C000020E1
:100480000E490F4A8B680F481B021B0AD31A30B55E
:100490000D4A83420AD80968C90307D51068516814
:1004A00000250A4C001969411060516014685568B4
:1004B000180000210019694130BDC04610E000E07D
:1004C0007FBB0000FEFF7F00A800002080BB000073
:1004D000800801D00138FDD17047000007B572B621
:1004E00001222021124B52421A63DA629A625A6B3D
:1004F00010480A435A635B6B0B400193019B0E4B00
:1005000010395A688A430A435A6099621A680B493B
:100510001140802252000A431A60FFF7D9FFBFF34F
:100520004F8F074B074ADA60BFF34F8FC046FDE796
:10053000001002400053070000140050FFFCFFFFB2
:1005400000ED00E00400FA0580220B4B5202D9684E
:1005500010B511420FD0DA60084B5B691B050AD554
:1005600072B68023064ADB0511680B43136062B63E
:10057000044803F0BBFC10BD0018024000700040AE
:10058000940000206C4B000870B50D0016000A495D
:10059000020000681C0003F0DCFE002801D12800E6
:1005A00070BD0378002BFAD003F0CCFCB042F6DB30
:1005B000A042F5DDF3E7C0467E4B0008F8B5012206
:1005C00005000E0004680F492378093BDBB2172BA6
:1005D00005D80800D84003001000984310D0300020
:1005E000FFF7EEFE310002000700200003F05CFE82
:1005F0000023984202D1E4192C6001331800F8BDA1
:100600000134E1E7130080000EB4002317B505AAFA
:1006100002CA040001A80092019303F051FF011ED9
:1006200001DD0198A047019803F0BCFC17BC08BC91
:1006300003B01847F7B50C0001AA4949019003F02F
:1006400088FE05000100474803F014FE002805D18C
:100650002000454A4549FFF7D7FFF7BD2900444828
:1006600003F008FE002801D1FFF738FF29004148B8
:1006700003F000FE002838D13F4D20002A683F4992
:10068000FFF7C2FF2B68002B03DA20003C49FFF77D
:10069000BBFF2B685B0003D520003A49FFF7B4FF8E
:1006A0002B689B0003D520003749FFF7ADFF2B686F
:1006B000DB0003D520003549FFF7A6FF0127344EA4
:1006C000344B9E4204D320003349FFF79DFFC4E71B
:1006D0002B681F4206D03268002A03D020002F4921
:1006E000FFF792FF04367F00EAE729002C4803F069
:1006F000C1FD2C4E002818D12B4B20001A682B4B23
:100700002B491B68FFF780FFA7E7306800280BD054
:10071000F768002F08D0290003F0ACFD002803D1B2
:1007200021000198B84798E71436224B9E42ECD33B
:1007300020002149FFF768FF1A4D1E4B9D4200D350
:100740008BE72A68002A09D0EB68002B06D02B69BA
:10075000002B03D020001949FFF756FF1435ECE7B2
:100760007E4B0008834B000844010020874B0008A3
:10077000914B0008974B0008940000209B4B000809
:10078000A84B0008AF4B0008B94B0008BF4B00084E
:10079000D07D0008DC7D0008804B0008C54B0008B8
:1007A000C94B0008087D0008A00000209C00002024
:1007B000CE4B0008D07D0008EB4B00086C4C0008C5
:1007C000F7B56B46564EDD1D33680C002870012BC3
:1007D00005D101335B2800D000233360F7BD002B27
:1007E00042D00300403B3E2BF8D843280BD14D4A62
:1007F0004D49136809688B42EED2032101334B48FF
:100800001360A047E8E7442808D1464A1368002B44
:10081000E2D0013B032146481360F2E77E28DBD19A
:10082000414B1A683F4B1B689A42D5D9002333606D
:100830003D4E3C4F33683868013B002233608342B1
:1008400000D31A1A3B4D411C4919401903F0B4FB5F
:1008500006213948A04738683168091A4019A0476D
:1008600003213648A047B9E7082801D07F280CD1DA
:100870000022334B1A602B4A1368002BAED0013B89
:1008800003212B481360A047D2E71B2804D1012283
:1008900032602B4A1360A1E7032802D1294B18705C
:1008A0009CE70D2801D00A281BD11F4E244F336826
:1008B000002B04D13B68002B01D083420DD10221D3
:1008C0002148A047002332681A48210083542A781F
:1008D0003A601C4A1370FFF7ADFE0023114A3360E3
:1008E000D8E70300203B5E2B02D9092800D075E72A
:1008F0000022134B0B4E1A6033687E2B00D96DE734
:1009000001212800A04732680A492878531C8854DE
:10091000054A336011688B4200D85FE7BAE7C046EA
:10092000B8000020B400002040010020764C0008F0
:100930007A4C0008C00000207E4C0008854C00085E
:10094000B0000020A4000020804B00080122A44930
:10095000F0B50B6885B0934313430B600B681342EB
:10096000FCD080239F4C5B002268134323609E4B86
:1009700062681B68120CDB041204DB0C1343802238
:100980001202134363608023DB0022681A42FCD00A
:10099000A368964A1340A360A368954A13400122B6
:1009A000A360E3689343E360802322685B041343FE
:1009B000236080239B0422681A42FCD00722A3688C
:1009C00093431A00022313433822A360A368134001
:1009D000102BFBD1874B884A00261A604822874B90
:1009E00080271A700B325A70854A864D1278BF05DF
:1009F0009A70854A30001278DA70844A12781A7137
:100A0000834A12785A71834A1278110941319971D7
:100A10000F210A404132DA717F4A12781A727F4AF6
:100A200012785A727E4A1278DE729A727D4B2F606B
:100A30001E607D4B1E607D4B1E607D4B1E607D4B9E
:100A40001E70FFF7D1FC8022E36B12051343E363B2
:100A5000E36B794913400293029BC02388685B01D2
:100A600003438B600121636B80200B436363636BE3
:100A70008C460B400193019BA023DB05DF686F4987
:100A8000C0040F4038438027D8605868BF013843FE
:100A9000586098686A4F084010439860586A384018
:100AA000802758621868BF0501400A431A60D96858
:100AB000644801403943D9605A6A63490A40802139
:100AC0005A621A68490502403A431A60E26B0A43C7
:100AD000E263E36B0B4070210393039B5B4B5A680B
:100AE0008A43110060220A4304215A605A688A43EB
:100AF0005A605A6856491140C02212010A438021A7
:100B00005A60626D8A4362658022596852000A43C6
:100B10005A6080224F495202CA6008681043086038
:100B20004868104348604C49C86F0243CA67614631
:100B30005A684A480A43C0215A60494B89005A58AA
:100B400002405A500222002000211A60454B464ABA
:100B500018605960C0204549454B00064B60136A38
:100B60001B021B0A0343136207238E600B60136A88
:100B70001B021B0A13623F4C3F4B9C4219D33F4C54
:100B800027003F4EB4421AD33E4803F0AFF972B685
:100B90003D4A2B6813402B600023224A136062B643
:100BA0003C00B44211D3224B214A1B68013313602D
:100BB000F6E72368002B00D098470434DCE763682D
:100BC000002B00D098471434DBE7A368002B05D036
:100BD000984772B60023134A136062B61434E0E7F4
:100BE0000020024000100240100FFF1FFFF0FFFF27
:100BF000FF8FFFFF24000020006CDC024401002076
:100C0000000EFF1F94000020010EFF1F020EFF1FA9
:100C1000030EFF1F040EFF1F050EFF1F060EFF1F12
:100C2000070EFF1F98000020900000209C0000206D
:100C3000BC000020A400002000580140FFFFFFF38B
:100C4000FFFF0FFFFFFFFFCFFFFFFFF0007000402F
:100C5000FFF1FFFF0018024004180240FF00FFFFF1
:100C600000E100E0A800002000ED00E010E000E05E
:100C70007FBB0000007D0008087D0008087D00089B
:100C8000D07D0008894C0008FFFFFFDFE621F8B5A2
:100C90000027124E0500C9000420376003F048F910
:100CA0000400B84204D128000D49FFF7ADFCF8BD9F
:100CB000E6223900D20003F092F9D023DB0523604D
:100CC00080235B006361803BA361E4230548DB0074
:100CD000E550346000F0D2FCE9E7C0465401002042
:100CE000964C00082511000870B50A4800F002FD76
:100CF00072B6094C094D236801332360286803F05C
:100D000051F900232B602368013B2360002B00D1A5
:100D100062B670BD25110008980000205401002023
:100D2000D0220E4B10B519680D4CD205914207D157
:100D3000802259695200914202D19B69802B0AD0CE
:100D4000084803F0D3F8002323700023064A1360F9
:100D5000064A137010BD0123F6E7C046007800086C
:100D600050010020AC4C0008540100205801002024
:100D7000F0B5002585B0019102930024E91C029E84
:100D8000AB1E03911F1E19DAD71801997F007F5EF1
:100D90000133BC460021775E61464F430399E41955
:100DA00002369942EED18021090264186B002414A6
:100DB0000135C452AA42E0D105B0F0BD9342E4DB54
:100DC0009F1AE2E7F0B589B00C0007AAA049079086
:100DD00003F0BFFA071E02D00378002B1FD19D4BF2
:100DE0009D481B789D4A002B04D043689C4A002BE9
:100DF00000D19C4A81689C4B49134B43E421C56850
:100E00000069FF31484369438009890A01900091D4
:100E1000200096495B13FFF7F7FB09B0F0BD010016
:100E2000934803F027FA051E14D12000802691492B
:100E3000FFF7EAFB76002A00874B0C3252009B1822
:100E40009A8820008C4912B20135FFF7DDFBB542CC
:100E5000F1D1E2E73900894803F00CFA051E13D1FD
:100E600020008749FFF7D0FB2A000D327A4BFF3272
:100E700052009B189A8820007F4912B20135FFF773
:100E8000C3FB802DF0D1C8E739007E4803F0F2F9AA
:100E9000061E00D09CE02000FFF7F8FE7A4D2B687C
:100EA000002BBAD020007949FFF7AEFB0322784B24
:100EB000784979481A700A68824202D11A78012A60
:100EC00009D176492000FFF79FFB0022704B1A7072
:100ED000FFF70AFFA1E71A78022AECD1C7232D6891
:100EE0009B00EF183A006E4B0497E91808CA80334C
:100EF0001B12F6188A42F9D1300032211930FFF75F
:100F000073F90302AB602B0000261C330590EE60E2
:100F100003960693069B995F7300FB584810C01810
:100F2000FFF762F9059BC01A0830001100B2B853F0
:100F30004043039B8030000A1B1803938023023632
:100F40009B009E42E6D1039B802202339B08EB600C
:100F5000C7239B00EE183100524B06985200FFF752
:100F600007FF872189006F188022390030004E4B1F
:100F7000FFF7FEFE00222A6100217B5E5B434033C7
:100F8000DB09D218049B00215B5E3B80049B023787
:100F900002330493BE42EFD12A61C7222E4E2900AC
:100FA0003000920001F0DCF8002801D13F4989E7C8
:100FB0000122284B20001A70E422F1683369FF32C5
:100FC00053434A439B093A49920AFFF71DFB7CE7CA
:100FD0003900384803F04EF9002833D11D4B36490B
:100FE0001B78012B2FD12000FFF750FE264E3368CF
:100FF000002B00D111E731492000FFF705FB042346
:10100000234D244A24492B7013688B4202D12B783C
:10101000012B06D120002149FFF7F6FA00232B709F
:1010200056E72B78022BEFD133683221D868FFF7CF
:1010300051F8E422FF32424321492000920AFFF78F
:10104000E3FAEBE71F492000FFF7DEFAE5E6C046CA
:101050007E4B00085001002000780008E84C000892
:10106000EF4C0008F64C0008F9150000F94C000898
:101070002A4D00082E4D0008434D0008484D000839
:101080004C4D0008604D000854010020664D0008DA
:10109000580100205C010020251100088F4D000838
:1010A0001C070000904E0008864E00089D4D000869
:1010B000BB4D0008F44D0008F94D0008164E00081D
:1010C000364E0008524E000870B500F04DFD030E7C
:1010D0001A0005000133DBB20B4C0C320C3352000A
:1010E0005B00A218E31891889A8809B212B2400AEC
:1010F000531A80B24343090304334D19D810A3682F
:101100004019C01870BDC04600780008044B10B5E7
:101110005B68002B00D0404200F05AFA10BDC04678
:1011200000780008F0B5794985B00B78DBB2009300
:10113000774B1C68774B1B78DBB2002809D0764AC6
:101140001268002A05D1FD25DA1E2A4201D0002BA3
:1011500003D101230B7005B0F0BD0228FBD1009B29
:10116000033B012BF7D8002CF5D06C4AA358002B79
:1011700002D0013BA350EEE70C23A350009B684F25
:10118000042B33D1FFF7A0FF0500E35D654EDB07BD
:1011900024D563680293E523029ADB00E358002A12
:1011A00000D05B42A268A1599B185B1B0193009B76
:1011B000042B2FD14B0728D1E423DB00019A5A4995
:1011C000E058FFF721FA802252019446019BE26821
:1011D00063445B135B431B0AD318E360E05DA359D0
:1011E00003285AD8FEF76CFF49767F8700F0BCFCD5
:1011F000E35D0500002BC8D16168E3684A1EC31A8D
:1012000000D54A1C6260E560BFE782200002FFF75C
:101210005FF9D8E7C7208023800084461B04EB18C1
:101220001B0E03939A0063460198A218D35880308E
:101230000012C0186346D050039B02985B00E3186D
:101240009A8B01329A837F230A001A40002801D02A
:101250004A421A40D30601D1019BE360E068019B3A
:1012600087211B1A80205200A218890000021B1837
:10127000505A1B141B185352B0E7C8220133A35114
:101280001201934209DB0123E355009B032B14D188
:101290006268D3179B1ADB0F6360E521A259234BC9
:1012A000C90053436350D0212148009B5043C905D6
:1012B000042B28D1FFF72AFF4DE7E523DB00E05898
:1012C0001C4B281AC0181C49FEF704FF1A4B434355
:1012D000A360E2E796220133A35192019342DCDB43
:1012E0000223E355D9E7C822013BA351520193429F
:1012F000D3DC0323F5E7013BA351002BCDDC022215
:10130000024B1A70C9E700F063F924E75801002086
:101310005401002068010020940000201C070000F8
:101320002C07000024070000E4520008713D0A0069
:1013300012000002285C8F0252B81E05702203685A
:101340001E499343002203608262036810B50B407C
:101350000360802301681A4C0B4373210360836987
:101360008B43190060230B438361082381690B437E
:101370000321836183698B438361036A01398B4352
:10138000036243682340C0244360436C2401234329
:1013900043640C4BC3624362012301634263026AEC
:1013A0001A4302628022416C12020A4342640268BC
:1013B0001A43026042691343436110BDFFFCFFFF03
:1013C000FFFEFFFFFE0300007FB500255C4B5D4C78
:1013D0001D60C023226CDB021A432264226C5A4E29
:1013E0001A400392039A226B300013432363236B4A
:1013F000564A13402363FFF7A1FF5548FFF79EFFAE
:101400000121236C534A0B432364236C0B4002934A
:10141000029B0523906903439361F3684E480B4395
:10142000F360C5264D4BB6009A5910408022D20178
:1014300002439A518022032092031A60636B402674
:1014400003436363636B464C03400193019BA023FA
:10145000DB05DA682240DA605A68B2435A60C0227B
:101460009E689201264032439A601A6A3D4E1640A9
:10147000A022D20432431A621A68802614408022C5
:10148000920122431A60DA68374C2240DA605A68C7
:10149000B2435A60C0229E681202264032439A60CC
:1014A0001A6A120112091A431A621A681440802239
:1014B000120222431A602D4AD4688443D4605468CF
:1014C0008C435460946884430C4394609162146824
:1014D0008443214302241160D96809308143D960D3
:1014E0005968A143596004219E6886430E439E605B
:1014F0009C621E6886430E431E60D3688343D3609C
:101500005368A3435360936883430B43936094628F
:1015100013682E3483430B431360D3684018A343EE
:10152000D36053688B4353609368A3430343936032
:1015300091621368A34318430D4B10601D707FBD6B
:101540005C0100200010024000440140FFFFF9FF51
:101550000048014000000140FF00FFFF00E100E003
:10156000FFCFFFFFFFFFFFF0FF3FFFFF0004005032
:1015700060010020074B10B51A69D20709D5022275
:1015800052421A61044B1A68002A02D002201B68DA
:10159000984710BD004401405C0100200122A021B9
:1015A000074BC9059A6292188A629A6202329A625D
:1015B0000023044A5363044A5363044A1370704778
:1015C0000004005000440140004801406001002038
:1015D000244BF7B51B68002B2DD10124224B802210
:1015E0001C7080235B03C018400DC305DB0D920007
:1015F0009446D21AA240A3401C4D090C5B5B525B7F
:1016000066464A4359438023A025DB0003400193EB
:10161000174F184B920D890DED05304212D07963AA
:1016200015494A63019A002A06D004229C619A61F6
:10163000023AAA629A62F7BD0222AA619A619C628A
:101640000422F7E77A630C4A5163019902220029C8
:1016500004D00421AA6199619C62EBE79C619A61C4
:10166000AA62EDE79400002060010020A84E000867
:1016700000440140000400500048014070B50E4E87
:1016800004003368002B0DD072B60C4D00202B687F
:1016900001332B60336898472B68013B2B60002B8C
:1016A00000D162B6002C03D00120A047346070BD89
:1016B000FFF774FFFAE7C0465C01002098000020A5
:1016C000094B10B51B68002B0CD0084B1B68002B76
:1016D00002D00020FFF7D2FF054B1B78002B01D072
:1016E000FFF75CFF10BDC046940000205C010020A5
:1016F0006001002070B50E4D2B68002B16D072B61D
:101700000C4C2368013323602B68834201D00028EE
:1017100006D12B680020984700232B60FFF73EFF7F
:101720002368013B2360002B00D162B670BDC04628
:101730005C01002098000020054B06481B78013B07
:10174000DBB2042B02D8044A9B0098587047C0466D
:1017500068010020AA5200080C530008F0B50C00E4
:10176000802189B00500C9000420059202F0E0FB49
:101770000490002806D12A0072490598FEF744FF1C
:1017800009B0F0BDD02100208905FFF721FF6E4888
:10179000FEF79EFE2A0000256C490598FEF734FFEF
:1017A000049B1D60FEF76CFE01950094009B019C5C
:1017B0001B184C41802206930794069E079F8024A5
:1017C000049B92009D18E404FEF75AFE8F42FBD85A
:1017D00001D18642F8D8009A019BB6185F4100F00B
:1017E000C3F9D0215A4B28608905EC502000FFF73F
:1017F000EFFE8023DB04E41888230435DB059C42DC
:10180000E2D1009B019A1B0F12011A43009B039225
:101810001B0102930299039A069B079C5B18544193
:101820009022F02606930794069C079D049B920045
:101830009F18B605FEF724FE8D42FBD801D18442E5
:10184000F8D8009A019BA4185D4100F08DF9D021D1
:101850003F4B38608905FE503000FFF7B9FEFC238E
:101860001B06F61804379E42E4D1069B079C02999A
:10187000039A5B185441A022802606930794069C85
:10188000079D049B92009F18F604FEF7F9FD8D4218
:10189000FBD801D18442F8D8009A019BA4185D417D
:1018A00000F062F9D0212A4B38608905FE503000E3
:1018B000FFF78EFE8023DB04F61888230437DB0550
:1018C0009E42E2D1069B079C029E039FF618674149
:1018D000049C049D2300D933FF33C0350293FEF7E7
:1018E000CFFD8F42FBD801D18642F8D8009A019BE8
:1018F000B6185F4100F038F980239B00E850802340
:10190000DB0508C5029BAB42E9D18022049B920013
:101910009D583226A84200DC643E8027BF00029B0F
:10192000A34205D1FFF73AFE049802F03BFB27E7FC
:10193000E35908495B1B734304CC0598FEF764FE2A
:10194000EDE7C046B252000800530700C25200083B
:1019500004FEFFFFDF52000873B572B63E4D2B68E0
:1019600001332B6000F07AFC00F032FC00F098FCB0
:1019700000F02EFC6B46DC1D2200012329210C20E7
:1019800000F02CFD354E00281CD100F089FC344AB3
:101990003449136809680B43136001220721336837
:1019A0000B4031499B005958304B19602B68013B63
:1019B0002B60002B00D162B6002A02D02C4802F026
:1019C00095FA73BD00F004FC022223782921934389
:1019D0002370220001230C2000F02EFD0028D4D01B
:1019E00000F0F6FB0123220032210C2000F0F6FC6F
:1019F0000028CAD000F0ECFB7F21336822785B011D
:101A00000A408B4313432370220001230C204D39DD
:101A100000F012FD0028B8D000F0DAFB012322000C
:101A200034210C2000F0DAFC0028AED000F0D0FB0E
:101A30003F2223783421134032680C209201134353
:101A400023702200012300F0F7FC00289DD000F055
:101A500027FC0022A2E7C046980000207001002069
:101A6000940000206C0100204C5400086401002008
:101A70002053000813B52D4B2D481A682D4B1A60C2
:101A800000222D4B1A70A023DB05DA680240DA60D1
:101A90001022596891435960C0219C688900044014
:101AA000214399609A611968042408408021490003
:101AB000014330201960D96881431143D9605968C6
:101AC000A1432143596099688143014399609C6116
:101AD00019681C3481430A431A60DA6817490A40BE
:101AE000DA605A68A2435A60C0229868120108401E
:101AF00002439A609C611A6811408022D2000A4316
:101B00000F491A600A6832320B68D31A002BFBDCCB
:101B1000A0222023D20510000093042100F03CFBFA
:101B2000FFF71AFF0022074B1A6013BD807C0008E4
:101B3000FFFCFFFF7001002068010020FFF3FFFFA2
:101B40009000002074010020044A054B9B1A0122DA
:101B50009B109A401300034A13607047D07D000821
:101B6000D07D00086C01002070B572B61E4C1022AA
:101B70002368202101332360A023DB059A6199614A
:101B8000C046C046C0469A62C046C046C046C0462F
:101B9000C046C046C046C0469962C046C046C04620
:101BA000C0469961C046C046C0461725002204269B
:101BB0009962186952003040013D02439961002D3D
:101BC000F6D1186952003040104310229A61236800
:101BD000013B2360002B00D162B6044B18608001EA
:101BE000800C800470BDC046980000207401002065
:101BF00070B586B00C0005AA2F49059002F0A9FB2C
:101C0000051E02D00378002B1AD1FFF795FD0500C1
:101C1000FFF7AAFF294A03001168294A294E1068D4
:101C200007220240920092598905090F0292019001
:101C300000912A0020002449FEF7E6FC06B070BDA2
:101C40000100224802F016FB021E13D11C4D07238F
:101C5000296805A8FEF798FC2860FFF77DFE07239A
:101C60002A68184913409B005B5820001849FEF76A
:101C7000CBFCE3E72900174802F0FCFA00280CD15E
:101C80000F490422144800F06BFA1449002800D1CF
:101C900013492000FEF7B8FCD0E72900114802F0F4
:101CA000E9FA002806D1A02122000F48C901FFF758
:101CB00055FDC3E70D49ECE77E4B00087401002099
:101CC00070010020040000203F53000873530008F7
:101CD0007853000890530008807C00089553000852
:101CE000BF530008F44D000812540008DF530008E9
:101CF0000D4A10B510680D49002802D00B681B1A58
:101D000011D40B68A3331360FFF72EFF084B094A69
:101D10001B689B059B0F012B03D0022B02D00123D4
:101D200000E00423137010BD780100209000002013
:101D30007401002068010020044B10B51A68044BA0
:101D400008001B680349FEF75FFC10BD84010020FA
:101D5000800100206C540008364A70B5106836497E
:101D6000002802D00B681B1A1CD40B68993313602F
:101D7000324B1A68520715D50822196C186889B2B7
:101D8000104210D01A60FA235B0099420AD90F243E
:101D90002B4D2C482B685C43FEF726FA20180830A0
:101DA0000011286070BD264B2748284C484319680D
:101DB000274B25681E88FEF717FA831B25485843D2
:101DC000254B1988891BFEF70FFA0F236B43C018A8
:101DD000224BC018001120602268214B9A4215DD69
:101DE000204B21481A6801681142DBD172B61F4AA4
:101DF00000681168013111601968014319601368A6
:101E0000013B1360002BCDD162B6CBE72268184BA3
:101E10009A42C7DC134B14481A6801681142C1D0BA
:101E200072B6124A00681168013111601968814365
:101E3000E4E7C04688010020900000200024014013
:101E40008401002050FB4A00E40C000080010020C7
:101E5000140FFF1FD8D60000180FFF1F30750000A9
:101E60006F110100940000207C01002098000020E8
:101E700060EA000037B58022364B5203196C364CAD
:101E800011431964196C354D114001910199196B79
:101E90000A431A631A6B32490A401A638022636C40
:101EA000120113436364636C2E4A1A4080239B0122
:101EB000134363648023A2681B062A401343A36074
:101EC000A368002BFCDB636C636C002BF8DB8020C9
:101ED0004000FEF7FDFAA022C021CA202369D205E6
:101EE0001B011B091343204A2361136809040B4398
:101EF0001360FF30FEF7ECFA1822E3688021934369
:101F0000E3606369113A13436361E36819329343F1
:101F1000E360C0235B01A3620423E26889019A4362
:101F2000E260E2680A438021E260E268C9010A4394
:101F3000E2600122A16829400A43A260A26815401C
:101F40002B43A360094A0A4B1A600A4B0A4A1A60DB
:101F500037BDC0460010024000240140EAFFFF7F69
:101F6000FFFFEFFFFFCFFFFF08270140E40C000059
:101F70008401002080010020A8610000044A054B74
:101F80009B1A01229B109A401300034A136070476A
:101F9000D07D0008D47D00087C0100200A4B0B494D
:101FA0001A680B4B5A609A600968D96019615A61C6
:101FB000084A12689A61084A1268DA61074A126888
:101FC0001A625A627047C0466C0FFF1F700FFF1FE6
:101FD000FC200240740FFF1F780FFF1F7C0FFF1FB4
:101FE000094B00201A69D2030CD45A690130002A27
:101FF00008DA064A9A60064A9A60C046C04658699E
:10200000C043C00F7047C04600200240230167450F
:10201000AB89EFCD074B00201A69D20308D4802288
:10202000596912060A435A61C046C0465869C00F32
:102030007047C04600200240F0B580251D4B6D0260
:102040001A69040000202A4231D1220001261027FB
:1020500001397F30091982435C6981431648764211
:1020600020435861914207D201205A6913490A401E
:102070005A611A69824319E011241869A043186152
:102080001660C046C04618698446644628402C4203
:10209000F9D11C693C4202D11C69E40708D45A6991
:1020A00006490A4011215A611A698A431A61F0BD32
:1020B0008032D7E70020024002000001FDFFFFFE52
:1020C000F0B50400260003250E432E408025214B49
:1020D0006D021869284006430020864232D15E69AD
:1020E0001D48033230435861102084469208002A6C
:1020F00007D101205A6919490A405A611A69824375
:102100001FE07F2020407C2801D0012A1BD180269F
:102110005869360330435861086820601E693000F2
:1021200028402E42FAD167461E693E4202D11E69FE
:10213000F6070AD45A6909490A4011215A611A69F5
:102140008A431A61F0BD0868206004340431013A02
:10215000CDE7C0460020024001000001FEFFFFFE67
:1021600070B504000E001500FFF73AFF002801D1FA
:10217000002070BD29002000FFF75EFF0028F7D087
:102180002A0031002000FFF79BFF0028F0D0FFF766
:1021900041FF431E9841ECE710B5084C2060084809
:1021A000016008490A60084A1360029B0C2B00D2A8
:1021B0000C23064A0C3B136010BDC0469C01002056
:1021C0009401002098010020900100208C01002043
:1021D00010B5024B1868FEF77BF910BD8C0100208A
:1021E000F8B50B4D0B4C2B6822689A62FFF7F0FF95
:1021F000094F0A4E3B6832689A61FFF7E9FF3B6876
:1022000032689A62FFF7E4FF2B6822689A61F8BD92
:102210009C010020940100209801002090010020E2
:102220000A4B0B4A1B68126870B59A61FFF7D0FF22
:10223000084D094C2B6822689A61FFF7C9FF2B688B
:1022400022689A62FFF7C4FF70BDC0469C0100205F
:10225000940100209801002090010020F8B50C4F57
:102260000C4E3B6832689A61FFF7B2FF0A4D0B4C87
:102270002B6822689A61FFF7ABFF3B6832689A626D
:10228000FFF7A6FF2B6822689A62FFF7A1FFF8BD4F
:102290009C01002094010020980100209001002062
:1022A00070B50A4D0A4C2B6822689A62FFF790FFBE
:1022B000084B094A1B6812689A61FFF789FF2B686F
:1022C00022689A61FFF784FF70BDC0469C01002020
:1022D000940100209801002090010020F7B504002F
:1022E000002926D0431801930825FFF771FF114FED
:1022F000114E3B683268013D9A61FFF769FF0F4B51
:102300001B681A690E4B1B6813405A1E93412278B2
:1023100052001343237032683B689A62FFF758FFFC
:10232000002DE2D1019B0134A34202D0FFF758FFF8
:10233000DAE7F7BD98010020900100209C01002001
:1023400094010020F7B5040043180193019BA342B8
:1023500001D1012536E08023082500931B4B1C4A40
:10236000217800981B68126808422DD09A61FFF707
:102370002FFF184F184E3B683268013D9A61FFF7F6
:1023800027FF3B6832689A62FFF722FF009B5B08D9
:102390000093002DE2D1FFF71BFF3B683268013448
:1023A0009A61FFF715FF094B094A1B6812681B6900
:1023B0001A4000923B6832689A62FFF709FF009B5F
:1023C000002BC3D02800FEBD9A62D0E79C010020FC
:1023D000940100209801002090010020F7B51F0013
:1023E0006B46DD1D9C1D287021701600FFF736FF1F
:1023F00001212800FFF7A6FF002804D10024FFF7E1
:102400004FFF2000FEBD01212000FFF79BFF0028A9
:10241000F4D00124FFF722FF2B782100234328006A
:102420002B70FFF78FFF0028E8D039003000FFF74E
:1024300055FFFFF7F5FEE2E7F7B51D006B46DF1D20
:10244000D8719E1D31701400FFF708FF012138007C
:10245000FFF778FF002804D10024FFF721FF2000B8
:10246000FEBD01213000FFF76DFF0028F4D02000F1
:102470002900FFF767FF431E98410400EDE70000C5
:10248000082270B50C26104D104BAA61DC6841186B
:10249000B4432243DA60802288420DD14022196879
:1024A0001142FCD008220C21AA62DA688A4311008A
:1024B00004220A43DA6070BD1C681442FCD0047820
:1024C00001305C60E8E7C046000400500044004072
:1024D00037B50D4B05001B780C00002B13D00B4BB0
:1024E0001B78002B0FD0012301A80370CA097E338B
:1024F0001A400B40427003218370FFF7C1FF210097
:102500002800FFF7BDFF37BDA1010020A201002078
:1025100010B50D4C2378002B14D00C490C4801F059
:10252000E5FC0C490C48FEF785F82378002B07D012
:102530000A4B1B78002B03D003210948FFF7A0FFAB
:102540000023237010BDC046A1010020A50100207A
:10255000AB540008D1240008A6010020A2010020ED
:102560005C4B0008774AF0B51100774B774D11CBE3
:1025700011C18023E96B9B021943E963E96B87B0C2
:10258000194005910599E96A714C0B43EB62EB6ABE
:102590007049714F0B400821EB6223696F483B4043
:1025A000236163698B43636163696D490B406361B8
:1025B00051688900FDF78EFD64210600FDF710FECD
:1025C000080132306421FDF785FD6421019030005F
:1025D000FDF780FD019B00011818624A80B2A060DF
:1025E000536940201F405761E3685F4A0127134049
:1025F000E36023695D4A5E4E13400C222361E36869
:102600005C4993431A0004231343E3606369034363
:1026100063612023E26838381343E360AB6B564AAA
:102620003B43AB63AB6B3B400493049B33681A4062
:10263000524B1343C0223360514B9201B360336855
:10264000134333602B6C4F4A3B432B642B6C3B4052
:102650000393039BCB691A4080231B011343CB6177
:102660000321C0226B6B0B436B636B6B0B400293BC
:10267000029B454BDD689543DD605D6885435D6089
:102680009D68954315439D6098621D683830954359
:1026900005431D60A023DB05DD6831388D43DD6017
:1026A0005D68BD435D609D688D430D439D601D6AFF
:1026B0008543AC4609256046054340201D621D68E0
:1026C0008D43013929431960D968FF259143084397
:1026D000D860196A2D4808408021C9010143196258
:1026E0001968C72091430A0080210A431A60284BC9
:1026F00080001A58AA431143802200255205195020
:102700001A60244B1D60244B1D60FDF7B9FE80222A
:10271000224B52001D60224B1F70224B1D70224B1A
:102720001D70224BF36073681B0C1B041343736012
:1027300033681F4380233760E2689B011343E360E3
:1027400007B0F0BD34020020807B0008001002407A
:1027500000440040FFFFFDFFFFF7FFFF008C8647AE
:10276000FFFCFFFF00380140FFE9FFFFFFDFFFFF35
:102770001C000240000001400F80FFFFA03000005D
:1027800004440040FFE0FFFF00040050FF0FFFFF84
:1027900000E100E040030020300200203C03002064
:1027A00028020020A0010020A10100203C020020FE
:1027B000F0B585B00C0003AA4949039001F0C9FDAA
:1027C000051E02D00378002B14D1464B464A1B78D5
:1027D000112B02D8454A9B009A584549454B4868F9
:1027E0001B6801900968200000914349FDF70CFF28
:1027F00005B0F0BD0100414801F03CFD00280ED1BC
:1028000080223C4D120629683D4B03A8FDF7BCFE13
:1028100028602A6820003B49FDF7F6FEE8E729001A
:10282000394801F027FD011E16D172B68022374DBE
:1028300012062B6803A801332B60314BFDF7A4FE71
:102840002C4A13681B1813602B68013B2B60002B6C
:1028500000D162B61268DDE729002D4801F00AFDBB
:102860002C49021E38D1224D5023296803A8FDF7B8
:102870008BFE9622284B69682860920103A8FDF719
:1028800083FE264E6860F368254A81001340F3609A
:102890002448FDF71FFC64210700FDF7A1FC080197
:1028A00032306421FDF716FC642102903800FDF7F8
:1028B00011FC029B00011818802380B2B060F268FE
:1028C0009B011343290008221748F360FFF748FCD7
:1028D0001649002800D116492000FDF795FE87E72C
:1028E0007E4B000828020020AA520008DC55000890
:1028F0003402002040030020BD540008934B000820
:10290000FFFFFF7FE4540008F55400089800002002
:10291000F954000846550008C0C62D000044004088
:10292000FFDFFFFF008C8647807B0008FE54000815
:1029300027550008044A054B9B1A01229B109A4018
:102940001300034A13607047D07D0008D87D00084B
:102950002C020020014B18687047C046400300203D
:10296000AF4BF7B51A68920600D55B68012622E0E6
:10297000AC4B9B5CFE2B29D172B6AB4AAB491368BA
:10298000AB48013313600B68006803430B601368A6
:10299000013B1360002B00D162B600F0C1FC0023A4
:1029A000A44A1370A44A13703B6801333B60FF2BA9
:1029B00001D900233B608021A04BA14F5B683A689E
:1029C0009BB24900CB1A9342D2D1F7BD9D4D2A78D4
:1029D000103A012A04D89C4A1278002A00D12E709D
:1029E0005AB2002A3BDA0022984991480A6091497C
:1029F0000B70914B01681A708C4B1A6811420ED003
:102A000072B6894A00681168013111601968814302
:102A100019601368013B1360002B00D162B68C4B28
:102A20001A68002A02D10023824ABCE7814B1B7836
:102A3000F82B02D1102AF6D8B6E7F62B08D12B785E
:102A4000103B012BEFD80022824B1A705A70ABE773
:102A5000F42BA9D12B78103B012BE4D8A4E7754ABD
:102A60001278F82A58D1502B1BD8794A11680429BA
:102A70009AD82A78103A012A00D995E7764AD35C89
:102A8000764A525C1341334204D0754A13680133CD
:102A9000136089E79B0700D486E7714A1368013BFE
:102AA000F6E7682B13D86A4A1268042A00D87BE735
:102AB00029781039012900D976E7520011004731F1
:102AC0009942E2D04832934200D06DE7E5E7782B97
:102AD00000D969E75E4A683B1268934200D063E719
:102AE000524B1B68002B03D12B78103B012B04D9D0
:102AF00031005C48FFF7C4FC56E7534B31001A78AD
:102B00005948D3B2042AF5D05848052BF2D058487A
:102B1000062BEFD05748EDE7F62A44D14B494C4CF1
:102B20000A682468501CA0420CD107221A40524C5B
:102B3000A45C484A547040221C001440134207D041
:102B4000086031E702329442F5D19A06520FEEE75F
:102B50000C6040494A780B789A4213D9D81C8242BB
:102B600005DC3F48D31A04681B19036008E0181DF0
:102B7000824205DD3A4C083320689B1AC31A236051
:102B80000A7011E79A42FBD2D01C834202DC344C1B
:102B90002068F2E7101D8342F2DD15003048083549
:102BA0000468EB1AE0E7F42A07D1344A13680133CA
:102BB000FF2B00D86CE700236AE7FD2A00D0F3E67C
:102BC000224A116802290DD8002906D1002B04D011
:102BD0001F480068834200D025E7481C10601D4A4A
:102BE0005354E1E6481C1B4C10607F2900D8635405
:102BF000A378E178DB010B431068191D0193814232
:102C000000D9D1E600210B4B19706378062B37D819
:102C10001800FDF755FA5338404A7F6F6F00C046E1
:102C2000004400403C020020980000209400002056
:102C30002C020020A0010020A10100201C00024065
:102C40003C030020280200208003002024020020F2
:102C500034020020A20100202C5600087D560008F6
:102C600040030020D75500089A5500089C550008DD
:102C70009E550008A0550008245600083002002088
:102C80007E2B00D192E02378002B00D18CE64C48BB
:102C900003210C302EE72378002B03D00321484872
:102CA000FFF7EEFBFDF71AFC7EE6019B002B29D017
:102CB0002379102B09D12B7000F00EFF2378002B05
:102CC00000D171E603213E4814E7112B03D12B708C
:102CD00000F01EFDF2E7012B0CD82B78102B04D14D
:102CE00000F002FF23792B70E8E7112BFAD100F0F6
:102CF00017FDF7E72378002B00D155E63048032174
:102D00000430F7E62378002B00D14DE62C48032150
:102D10000830EFE62378002B00D145E6002323702E
:102D200063702B78E37004231360264B1968002925
:102D300002DA0521267111602349186809680142E9
:102D400004D01068451C1560072525541B688B436B
:102D50005B0004D01368591C11600221E1541B4B25
:102D600018781368C1B2042808D1591C11607F215A
:102D7000E15411682000CB1EA370BBE6052903D1E6
:102D8000591C11607E21F3E7062903D1591C1160FB
:102D90007D21EDE7022903D1591C11600C21E7E7E1
:102DA0000329E6D1591C11600B21E1E77F2803D8E4
:102DB0002154074B1E70F7E57F342170F9E7C046B8
:102DC0005C4B0008940000207C0100208003002060
:102DD000A1010020184A19491368002B03D0086884
:102DE0001B1A002B0ADC0B6815492833FF331360CC
:102DF0000B68144A002B02DA102393627047124BBF
:102E000012481B780078DBB2012805D1023B012B68
:102E100002D90B68002B0CD001200D490B7801332F
:102E200003400B701021002B01D09161E6E7916205
:102E3000E4E710239361E1E74803002090000020BD
:102E40009400002000140050800300205001002056
:102E50004403002020200F4A82B0516B014351638C
:102E6000536B0D4903400193019B0C4B1038DA68FA
:102E70000A40DA609A680A409A6098625A68824307
:102E80005A601A681140802252000A431A6002B048
:102E90007047C04600100240FFFCFFFF00140050C6
:102EA0000023184A1370184A1360184A1360184A0E
:102EB0001360184A1360184A1360184A1360184ABE
:102EC0001360184A1360184A1360184A1360184AAE
:102ED0001360184A1360184A1360184A1360184A9E
:102EE0001360184A1360184A1360184A1360184A8E
:102EF0001360184A1360184A1360184A1360184A7E
:102F000013707047800300205C03002054030020EE
:102F1000500300204C0300207C0300207803002095
:102F20007003002084030020580300207403002055
:102F3000880300209C030020A003002094030020AD
:102F400098030020900300208C0300206C030020D5
:102F5000680300206403002060030020A403002015
:102F6000A8030020044B05481A78D3B2062A02D8D9
:102F7000034A9B009858704780030020AA5200081B
:102F800048580008F8B5051E0CD1634B01001870B5
:102F9000624B1860624B1870624B1868FEF7B6F807
:102FA0002800F8BD01282FD1FFF7D4FC5E4B002488
:102FB0001860FEF789F8322358435C4B5C4918606F
:102FC000584B1860554B19605A4B18605A4B186093
:102FD0005A4B1C605A4B1C605A4B1C605A4B1C606D
:102FE0005A4B1C60FEF792F8594B1C60594B1C6001
:102FF000594B1C60594B1C60594B1C60594B1C6051
:10300000454B1D702000CCE70020022DC9D1424B5A
:103010001978CAB28142C4D0032AC2D0A021C905FE
:103020000C6980212000890108400C4213D0042A39
:1030300001D1033A1A704C4B1B78032B0ED103229B
:10304000354B1A700024354B21001C60354B186835
:10305000FEF75CF8D6E704221A70A2E7FFF77AFCC5
:10306000314A3A491368C31A0B6040495C18404919
:103070008C42E4D8324C10602268DB029B1823603B
:103080003226FEF721F880224643284D1202296895
:103090002D48731A9B181A14026036481B0C0768D7
:1030A00056203F09FF30784380271B0459182960B8
:1030B00022493F020B68C019D3180B6021685043A6
:1030C000C91A204B801919602B4B1B4E1B683060AE
:1030D000002B09D0C0209C684000844204D21868AC
:1030E00000280FD0013818608023DB05C918802321
:1030F0001B069942A3D8214BD218214B9A42A1D842
:1031000001204EE7586818609868441C023080001F
:103110009C601B185960E7E7800300204C030020E7
:10312000A8030020500300205C030020540300206B
:10313000AAAAAA227C0300207803002070030020A2
:10314000840300205803002074030020880300201B
:103150009C030020A003002094030020980300207B
:10316000900300208C03002068010020FFFF07006F
:10317000FEFF0F0064010020A40300207017000070
:10318000E02E0000F7B5214F0D00214C0092019375
:103190008002B84224DCFA21F530FF308900FDF7C7
:1031A00023F8206024681B4E002D1CD1356080223E
:1031B000009B52025C430234174BA41094421FDA66
:1031C0001C601B68019A154C5343BB421BDCFA215F
:1031D000F533FF3318008900FDF706F82060F7BDCE
:1031E0000F4B2360DEE72900A001FCF7FDFF8023E1
:1031F0005B02984201DA3060D9E7094B3360D6E7C9
:10320000074A1A60DDE7064B2360E8E70BFEE70399
:103210006C0300206803002060030020640300208A
:10322000FFFF00002D4B2E481A6830B508321211EE
:10323000824200DA020080231B029A4200DB294A04
:10324000294B2A491B682A4D534320331B110B601D
:10325000284909684A43296852105218541CFF34FF
:103260006112640A6402121B2A60234A1468091955
:10327000224CA14200DA210080246402A14200DB3A
:103280001F4911601F4A126802329210824200DA0E
:10329000134A80242402A24200DB124A1A4C2468FA
:1032A00054431A4A083424111460194A126802322D
:1032B0009210824200DA0A4A80200002824200DB39
:1032C000084A14485B1800681B1942431248083228
:1032D00012119B1A0260114A136030BD580300207E
:1032E0000180FFFFFF7F00006C030020A00300208F
:1032F0009803002068030020940300200100FFFFD2
:10330000FFFF0000880300206403002090030020DA
:1033100074030020600300208C0300209C03002025
:1033200010B50020FEF7E6F910BD0000F0B587B03B
:103330000C0005AA6E49059001F00BF8051E02D09D
:103340000378002B1CD1FFF70DFE6A4B05001E68A9
:103350002023FA200193684B80001B68D0219B0A30
:103360005843D0235B03C0188903FCF7B3FEF61261
:1033700033002A00614900902000FDF745F90EE076
:1033800001005F4800F076FF00280AD1FFF7C8FF70
:10339000FFF7E8FD5B4902002000FDF735F907B0B3
:1033A000F0BD2900584800F065FF061E5AD1574B62
:1033B00057491B78002B00D196E05649042000F0B5
:1033C000B7FD5549051E00D18EE032003100534B48
:1033D00005A8FDF7D9F8310068602860504B514AC4
:1033E000AE6005A8FDF7D0F872B64F4E4F4F336868
:1033F000C002013333604E4B3D601A6810181860EC
:103400003368013B3360002B00D162B6200049498C
:10341000FDF7FAF8C0235B003C4A1278012A03D179
:103420003A6892689A42F7D300233B601F00AB686A
:10343000BB420DD872B6336828000133336000F008
:10344000B1FD3368013B3360002BA8D162B6A6E71B
:103450002B00BA000C3320009A583749FDF7D4F8F6
:103460000137E4E72900354800F004FF00280BD1BC
:10347000334B344A1B6834490193344B1B68009327
:10348000334B12681B6877E72900324800F0F2FEE0
:10349000002811D1304B314A1B6820000293304B79
:1034A00030491B680193304B1B6800932F4B126807
:1034B0001B68FDF7A9F872E729002D4800F0DAFE35
:1034C000002810D12B4905A8FDF778F80223002821
:1034D00006D1294905A8FDF771F8431E9841C3B2EA
:1034E000264A13705BE726492000FDF78DF856E762
:1034F0007E4B0008580300204C030020865600082D
:10350000B1560008B5560008F44D000880030020AD
:10351000C25600080C060000E5560008FFFFFF0732
:1035200010270000F0D8FFFF98000020A40300201F
:1035300084030020F9560008E45200081B570008D5
:10354000640300206C030020205700086003002063
:10355000680300204B570008900300209C030020C4
:103560008C0300204F57000894030020A003002084
:103570008257000888570008974B0008A8030020CE
:103580008C57000807B51F4B1B78002B17D01E4B1C
:103590001B68002B07D11D4B1B78002B03D01C4B45
:1035A0001B78012B01D0FFF7BBFE1A4B1A78002ABB
:1035B00005D0194A1278032A02D100221A7007BDD9
:1035C0001B78022B0FD1154B154A1B681549019327
:1035D000154B16481B680093154B12681B68096849
:1035E00000F084FCEBE7134B134A1B68134901936B
:1035F000134B14481B680093134B12681B6809682F
:10360000EEE7C046800300209400002068010020FF
:1036100050010020A8030020A400002090030020F7
:10362000A00300209C0300208C0300204F570008BB
:10363000940300204C030020840300205803002042
:1036400050030020D25700087003002010B572B656
:103650000A4C0B482368026801332360094B04308D
:103660005343094A1B0C13600FC8FFF78BFD2368F7
:10367000013B2360002B00D162B610BD98000020F2
:10368000B00300207C3F3500AC030020054910B595
:103690000A00054B13CB13C203CB03C2FFF7D6FFBF
:1036A00010BDC046B0030020847C000810B5FFF7B1
:1036B00069FC00281AD0FFF7B5FD104B1868C21737
:1036C0008318534080225202934200D913000C4ABF
:1036D000116859430B4B1960002808DC0AD10A4BCA
:1036E0001B68C018094B1860FDF710FD10BD802045
:1036F000C005F4E7C0200006F1E7C0469C030020A7
:10370000AC0300204C03002078030020500300206D
:1037100010B50248FDF7B2FF10BDC046AD36000837
:1037200010B50248FDF7E6FF10BDC046AD360008F3
:1037300070B58AB00C0009AA7249099000F009FE20
:10374000051E02D00378002B2ED16F4B6F4D1A68E7
:103750006F4B9A4202D1FFF705FC05006D4BFA2032
:103760001E686D4B80001A69D0210692DA688903C1
:1037700005929A68F61204925A6803921B680293A3
:1037800020230193654B1B689B0A5843D0235B039E
:10379000C018FCF79FFC330000902A00200060490D
:1037A000FCF732FF0AB070BD01005E4800F062FD18
:1037B00000280FD1FFF7ACFF534B544A1968544B04
:1037C000994202D1FFF7CEFB020020005649FCF7D8
:1037D0001BFFE7E72900554800F04CFD002802D107
:1037E000FFF79EFFE8E72900514800F043FD021E65
:1037F00011D1FA23484D9B00296809A8FCF7C4FEA3
:103800002860FFF723FFFA2320002A6849499B001C
:10381000FCF7FAFEC6E72900474800F02BFD002818
:1038200013D13D4D0122454B696809A8FCF7ACFE58
:103830006860FFF70BFF424B42491B68009364230B
:103840006A682000FCF7E0FEACE729003E4800F083
:1038500011FD021E0FD1304D384BA96809A8FCF7A5
:1038600093FEA860FFF7F2FE384B39491B680093BE
:10387000AA68C823E5E72900364800F0FBFC021ED1
:1038800015D1254D2D4BE96809A8FCF77DFEE860B0
:10389000FFF7DCFE304B20001B6830490193304BB2
:1038A0001B680093EA682823FCF7AEFE7AE729003C
:1038B0002C4800F0DFFC021E0FD1174D1F4B296969
:1038C00009A8FCF761FE2861FFF7C0FE224B2649DC
:1038D0001B6800932A69C823B3E72900234800F036
:1038E000C9FC2349002808D10B4914222148FEF7BE
:1038F00037FC2149002800D120492000FCF784FE34
:1039000050E7C0467E4B00085C010020A25500082D
:10391000AD36000858030020B00300204C030020FF
:1039200064580008B4580008B7580008B156000899
:10393000C1580008C4580008DE58000810270000CD
:103940006C030020E15800080359000868030020B8
:103950000659000828590008640300202B59000864
:1039600060030020575900085A5900089053000876
:10397000C1590008847C00087D590008A45900083A
:1039800010B572B60B4A0C4C136821680133646899
:1039900013600A4B0A48594363430A4C0160236091
:1039A000994200D203601368013B1360002B00D1E1
:1039B00062B610BD98000020D00300207C3F350087
:1039C000C8030020C403002010B5034A034B03CBF7
:1039D00003C2FFF7D5FF10BDD0030020007C000814
:1039E00070B5FFF7CFFA00281BD02E4B2E481A686F
:1039F0002E4B2F491C688023DB019A4212DD2D4B90
:103A00001A682D4B1B68D31880221B041B19D20582
:103A10009B180360294B1B680B6009680068FDF761
:103A200075FB70BD264B9A4209DA224B224A1B686D
:103A300012689B18C0221B041B191206E8E7214BD1
:103A40001B681B041B1903601F4B1B68002B08D04D
:103A50001A4B1B680A681D4C9A4218D20022226039
:103A6000DAE7D317D2185A4080239B019A42EFDC41
:103A70008024174B24011B68A242EBDD0F4C154D2F
:103A800024685219E41A640B62439B18E2E7256824
:103A90009B1A9B105B19DD04ED0C5B1325609B18D2
:103AA000BAE7C04658030020500300207C030020E2
:103AB0004C0300207003002074030020C803002082
:103AC00000C0FFFF8403002088030020CC030020F7
:103AD000C403002000F8FFFF10B50248FDF7CEFD3B
:103AE00010BDC046E139000810B50248FDF702FEDE
:103AF00010BDC046E139000870B586B00C0005AABB
:103B00004849059000F025FC051E02D00378002BE3
:103B100028D1454B454D1A68454B9A4202D1FFF7D3
:103B200021FA0500434BFA201E68434B80005A6877
:103B3000D02103921B6889030293202301933F4BFA
:103B4000F6121B689B0A5843D0235B03C018FCF78E
:103B5000C1FA330000902A0020003949FCF754FDD7
:103B600006B070BD0100374800F084FB00280FD17B
:103B7000FFF7B2FF2C4B2D4A19682D4B994202D109
:103B8000FFF7F0F9020020002F49FCF73DFDE7E7C1
:103B900029002E4800F06EFB002802D1FFF7A4FF99
:103BA000E8E729002A4800F065FB021E11D1FA233C
:103BB000214D9B00296805A8FCF7E6FC2860FFF76B
:103BC000DFFEFA232A6823499B002000FCF71CFD36
:103BD000C6E72900204800F04DFB021E0DD1FA2354
:103BE000154D9B00696805A8FCF7CEFC6860FFF7DF
:103BF000C7FE96236A681949E7E72900184800F0CC
:103C000039FB1849002808D10B4908221648FEF74D
:103C1000A7FA1649002800D115492000FCF7F4FC4A
:103C20009EE7C0467E4B00085C010020A2550008BC
:103C3000E139000858030020D00300204C03002085
:103C40003F5A0008B4580008795A0008B1560008D5
:103C5000C1580008855A0008A15A0008A45A000853
:103C600090530008085B0008007C0008C05A000858
:103C7000E95A00080D4885460D480E490E4A0023B2
:103C800002E0D458C4500433C4188C42F9D30B4A10
:103C90000B4C002301E013600432A242FBD300F07E
:103CA00031F900F05BF9FCF751FEFEE7001000204F
:103CB000000000208C000020BC5C00089000002068
:103CC0006C040020FEE70000802230B58025084B00
:103CD00041189201884202D0DC68144200D130BD04
:103CE0001C682C42FCD0047801305C60F2E7C046CE
:103CF0000038014070B580250A4B0B4C5B68226888
:103D00009BB2EB1A934200D170BD084B0849985CF6
:103D1000FCF756FD2368013323607F2BECD9002389
:103D20002360E9E73000024058040020D803002057
:103D3000C93C00088022F0B50824544BD201196C0C
:103D400085B011431964196C514D114003910399C9
:103D5000196B0C260A431A631A6B4E494E4F0A40E0
:103D60001A634E4A11692940116150694C49A043B8
:103D7000506150694B4C0840506151694A48294094
:103D80005161A221FF319160D1680140D160116978
:103D9000464801401161D168B1433143D1604021AF
:103DA0005069014301205161996B01439963996BFB
:103DB0000140029102993E490D682F40A0253D43E4
:103DC0000D603C4D3C4FCD603C4D8D600D682F40EB
:103DD00080256D013D430D601D6C394F05431D6409
:103DE0001D6C05400195019DFD692C40C025ED022B
:103DF0002543FD61202703245D6BA4463D435D639D
:103E00005B6B3B400093009B2E4BDD68A543054355
:103E1000DD605D68854305435D6002259F68A743BB
:103E20002F439F601F6AA419A743073C274364469A
:103E30001F621F68A7432F431F60DF68B743BC465C
:103E40000427644627430824DF605F68AF433D438F
:103E50005D609D68B54325439D60F0251F6AAF43B3
:103E6000703D2F431F621F68B7433C431C60802393
:103E7000D4689B012343D3604B681B0C1B042B436A
:103E80004B600B681843086005B0F0BD001002409D
:103E9000FFF7FFFFFFBFFFFF0F80FFFF003801406C
:103EA000FFFCFFFFFFFFE0FFFFE9FFFFFFDFFFFF7A
:103EB00030000240D8030020FFCFFFFF043801404C
:103EC0000000014000140050002313B50A00010057
:103ED00001A8019300F0F4FA040001000198FFF733
:103EE000F3FE019800F05EF8200016BD0FB407B590
:103EF00004A901C90191FFF7E7FF03B008BC04B0B2
:103F0000184700000749084A4B6812681B0C1B043D
:103F1000134380229201134380224B60034B12050E
:103F20009A60704700100240040FFF1F00ED00E090
:103F300010B5034B0A000100186800F0A3F810BD8B
:103F40002800002010B50A22002100F095FA10BDCB
:103F5000014B18687047C0462800002070B5002645
:103F60000C4D0D4C641BA410A64209D10026FCF791
:103F700039FA0A4D0A4C641BA410A64205D170BD43
:103F8000B300EB5898470136EEE7B300EB5898477B
:103F90000136F2E7B05C0008B05C0008B05C0008D5
:103FA000BC5C000810B5034B0100186800F020F855
:103FB00010BDC0462800002010B5884202D98B18D9
:103FC000984203D3002307E08B5C8354013AFBD271
:103FD00010BDCC5CC45401339A42FAD1F8E7030017
:103FE0008218934200D1704719700133F9E700003D
:103FF00070B50500002910D00C1F2368002B00DAD3
:10400000E418280000F068FA1D4A1368002B05D157
:1040100063601460280000F067FA70BDA34208D9FD
:10402000216860188342F3D118685B6841182160E9
:10403000EEE71A005B68002B01D0A342F9D91168A2
:104040005018A0420BD12068091850181160834203
:10405000E0D118685B68411811605360DAE7A0424C
:1040600002D90C232B60D5E721686018834203D165
:1040700018685B684118216063605460CAE7C046F5
:104080005C040020F8B54B1E06000F001400194216
:1040900002D000252800F8BD082900D20827631D9A
:1040A00002D90C233360F4E7042C00D20424390035
:1040B0000323033408399C43CB43A342F1D330009C
:1040C000091900F04FF80028E3D004380368002BEA
:1040D00000DAC018F91C41187D420D40011D6B1A11
:1040E0008D420AD0C7180B2B17D90268D21A3A6032
:1040F00003603000FFF77CFF3800220003680C32B9
:10410000C118AA189142C5D929190A1A9B1A026026
:10411000300008C1FFF76CFFBCE75B423B60ECE797
:1041200070B50F4E0D0031680400002902D100F077
:104130008FF830602900200000F08AF8431C0AD074
:104140000323C51C9D43A84207D0291A200000F074
:104150007FF8431C01D101256D42280070BDC04687
:1041600060040020F7B50322CB1C934308330600FC
:104170001F000C2B32D20C27B94231D8300000F08E
:10418000ABF9324D2B681C00002C2ED139003000C9
:10419000FFF7C6FF0400431C1ED12C682500002D2C
:1041A0004AD123682900E3183000019300F050F849
:1041B000019B834243D123680337FF1A03239F43A4
:1041C00008370C2F00D20C2739003000FFF7A8FF6A
:1041D000431C34D02368DF19276013E0002BCBDAAF
:1041E0000C23002533602800FEBD2268D11B20D49B
:1041F0000B2917D9E2192760A34211D12A606368FD
:10420000116053603000250000F06EF907220B3575
:10421000231D9543EA1A9D42E5D05B1BA350E2E7BC
:104220005A60ECE76268A34201D12A60EAE75A606B
:10423000E8E723006468A7E72C006D68AFE70C236C
:104240003000336000F050F9CDE7C0465C04002038
:10425000002370B5064D040008002B60FCF7C4F87D
:10426000431C03D12B68002B00D0236070BDC046D7
:1042700064040020F0B5050000240327094E2A5DE0
:10428000B35C3B40012B00D120320B5DF05C384029
:10429000012800D12033D01A9A4202D10134002BD8
:1042A000EDD1F0BD7D5B0008F7B5050003200023CC
:1042B00084460F4F0192019A934201D1002013E0EE
:1042C0006646EC5C385D3040012800D120346246FF
:1042D000C85C3E5C1640012E00D12030261A844274
:1042E00003D101330028E6D1FEBD3000FCE7C04613
:1042F0007D5B0008F0B5002802D11068002813D0BB
:10430000040020000E00057801343778002F04D116
:10431000002D0FD12800156006E00136BD42F4D112
:10432000002BEED114600370F0BD2F000FE00133BD
:10433000002E04D1230001341D7827000B001E78C5
:10434000B542F4D1002DF0D00023013C237017605A
:10435000EAE710B50123FFF7CDFF10BDF0B587B038
:104360001E00059001910292012B45D00B00242ED6
:1043700042D83F4A082194461A0060461478013317
:10438000005D1D0007000F400842F5D12D2C3AD1E9
:1043900001271C78951C002E65D0102E09D1302CD9
:1043A00007D120222B789343582B57D110266C78B5
:1043B0000235304B3100FB1818000393FBF710FF58
:1043C0000023012284461800049152422100303912
:1043D00009291DD80C00A64228DD002B24DB130080
:1043E000844506D302D10499A14202DB0123704324
:1043F00020182C780135E9E7FFF7AAFD16230360A2
:10440000002007B0F0BD2B2CC5D11C78951CC2E74D
:1044100021004139192901D8373CDCE721006139F5
:10442000192903D8573CD6E71300E2E7002B09DA35
:104430002223059A03981360029B002BE1D06B1E88
:10444000019307E0002F00D04042029A002AD8D002
:10445000002BF4D1029B019A1A60D2E73024002E7F
:10446000A7D10836A5E7302C9BD00A26A1E7C04685
:104470007D5B0008FFFFFF7F10B513000A000100FD
:1044800002480068FFF76AFF10BDC0462800002000
:1044900030B500240D0009499BB003916946009492
:1044A00002940494059400F089F8A04203DB009B79
:1044B0001C70049B2B601BB030BDC0468802FFFF00
:1044C00010B513000A00010002480068FFF7E0FF82
:1044D00010BDC0462800002010B5024800F0F0FAD8
:1044E00010BDC0466804002010B5024800F0E9FA8B
:1044F00010BDC04668040020F0B58E6885B0070086
:104500000C00039201939E423CD890238A89DB00E1
:104510001A4234D00969236860695B1A0293032345
:104520004343DD0FED18019B029801331B186D10FA
:10453000AB4200D91D00530532D529003800FFF7E2
:1045400011FE061E09D10C233B6040230120A289E5
:1045500040421343A38105B0F0BD029A216900F0E7
:10456000BCFAA389144A1A4080231343A381029BF7
:104570002661F61826606561019EED1AA560019B13
:104580009E4200D9019E320003992068FFF714FD76
:10459000A36800209B1BA36023689E192660DAE7AE
:1045A0002A00380000F0A2FA061EE0D13800216986
:1045B000FFF71EFDC7E7C0467FFBFFFFF0B5A1B0C8
:1045C00003901D008B890F0016001B0611D50B6987
:1045D000002B0ED14021FFF7C5FD3860386100285F
:1045E00005D10C23039A0138136021B0F0BD40239C
:1045F0007B61002308AC6361203363761033A376BC
:10460000079535002B78002B01D0252B47D1AB1B0C
:104610000593B5420CD0320039000398FFF76CFFC8
:10462000431C00D1AEE06269059B9446634463611C
:104630002B78002B00D1A5E00122002352426260BA
:1046400004A9543252186E1C2360E360A3601370F7
:10465000A36505223178544800F034FA751C00280F
:104660001FD12268D30604D5532304A95B18202147
:104670001970130704D5532304A95B182B21197053
:1046800033782A2B16D0350000210A20E3682A78D7
:104690006E1C303A092A4ED9002911D117E0013594
:1046A000B0E7414B2268C01A0123834013432E0018
:1046B0002360CEE7079B191D1B680791002B01DBC8
:1046C0000B9304E05B42E3600223134323602B78E7
:1046D0002E2B0AD16B782A2B35D1079B02351A1D58
:1046E0001B680792002B2BDB0993304E032230000E
:1046F000297800F0E7F9002806D04023801B83408A
:1047000022680135134323602978062228486E1C4D
:10471000217600F0D7F900283CD0264B002B25D17C
:104720000722079B07339343083307936369049A6F
:104730009B18636165E74343350001219B18A6E799
:1047400001235B42D0E700230A201A000135636091
:1047500029786E1C3039092903D9002BC5D009925C
:10476000C3E74243350001235218F1E707AB00933A
:104770003A002100104B039800E000BF0490049B16
:104780000133D3D1BB890D985B0600D42DE70120FE
:1047900040422AE707AB00933A002100064B0398FA
:1047A00000F07CF8EAE7C0467D5C0008835C000806
:1047B000875C000800000000F9440008F7B5150008
:1047C00001938A680B690C000090934200DA130091
:1047D00022002B6043321278002A01D001332B6073
:1047E00023689B0602D52B6802332B6022680623C0
:1047F00017001F401A4227D0230043331B785A1E4C
:1048000093412268920630D4220001990098089EB4
:104810004332B047431C25D0062320682A68E1684C
:1048200000250340042B03D18D1AEB43DB171D40F9
:10483000A3682269934201DD9B1AED180027BD424F
:1048400020D1002010E00137E3682A689B1ABB42A0
:10485000D2DD2200012301990098089E1932B04749
:10486000431CF0D101204042FEBD3020E11843310D
:10487000087021005A1C45310978A21843320233CE
:104880001170C1E72200012301990098089E1A3295
:10489000B047431CE6D00137D1E70000F0B58BB03C
:1048A00006920A0043320793059004920A7E0C0098
:1048B000109B782A07D8622A09D8002A00D1C1E0C3
:1048C000582A00D18CE026004236327022E01000D7
:1048D00063381528F7D8FBF77BFD16001F00F6FF9D
:1048E000F6FFF6FFF6FF1F00F6FFF6FFF6FFF6FFF6
:1048F000A80036009A00F6FFF6FFB900F6FF360072
:10490000F6FFF6FF9E0026001A684236111D196058
:10491000136833700123A7E0086819680A1D0506AB
:104920000BD50D681A60002D03DA2D23049A6D4211
:104930001370614B0A2703931BE00D681A60410650
:10494000F1D52DB2EFE70D681968081D18602E0625
:1049500001D50D6803E06D06FBD50D68ADB2564B71
:10496000082703936F2A00D0023723000022433325
:104970001A706368A360002B03DB04222168914353
:104980002160002D02D1049E002B0CD0049E280033
:104990003900FBF725FC039B013E5B5C33702B0069
:1049A00005009F42F3D9082F09D12368DB0706D5FC
:1049B00063682269934202DC3023013E3370049B1A
:1049C0009B1B2361079B210000930598069B09AA66
:1049D000FFF7F4FE431C4CD1012040420BB0F0BD68
:1049E00045310A70344A03921A68216820CA1A6055
:1049F000080616D5CB0702D52023194321601027BE
:104A0000002DB2D1202322689A432260ADE72022F4
:104A100009680A4322602200782145321170274A32
:104A2000E1E74806E6D5ADB2E4E71A680D68101D67
:104A30004969186013682E0601D5196002E06D06F9
:104A4000FBD519800023049E2361BBE71A68111D62
:104A50001960166800213000626800F033F8002801
:104A600001D0801B6060636823610023049A137087
:104A7000A8E72369320006990598079DA847431CBB
:104A8000AAD023689B0715D4099BE0689842A5DA51
:104A90001800A3E72200012306990598079E193202
:104AA000B047431C98D00135E368099A9B1AAB4282
:104AB000F0DCE9E70025F7E78E5C00089F5C000862
:104AC00070477047C9B28218904201D100207047E8
:104AD00003788B42FBD00130F6E7002310B59A42F1
:104AE00000D110BDCC5CC4540133F8E7F7B5070022
:104AF0000E001400002905D11100FFF733FB05005B
:104B00002800FEBD002A03D1FFF772FA2500F7E75F
:104B100000F01BF80190844203D835004308A342FB
:104B2000EED321003800FFF71DFB051EE8D0019BE6
:104B300022009C4200D91A0031002800FFF7CDFF67
:104B400031003800FFF754FADAE70B1F1B68181F13
:0C4B5000002B01DA0B58C0187047000061
:104B5C00000000000600000005000000040000003A
:104B6C004170703A20506F77657220646F776E0DCC
:104B7C000A0020090D0A00756964005549443A2061
:104B8C0025730D0A007265736574006572720045B9
:104B9C0072723A2030782530386C58002046617497
:104BAC00616C0020506F7765724C6F770020496EF6
:104BBC0069740020536F6D65002025730066726563
:104BCC006500467265653A204D454D3D256C752C4A
:104BDC00204C4F4F505F4D533D256C750D0A002DE9
:104BEC002D2D2D2D2D2D2D2068656C70202D2D2D0E
:104BFC002D2D2D2D2D2D2D0D0A756964202D207335
:104C0C00686F7720646576696365205549440D0AA1
:104C1C0066726565202D2073686F772066726565F6
:104C2C00207265736F75726365730D0A65727220FD
:104C3C002D2073686F77206572726F7220737461A8
:104C4C007475730D0A7265736574202D207265730B
:104C5C006574207468652073797374656D0D0A0032
:104C6C002573202D2025730D0A001B5B43001B5B55
:104C7C0044001B5B731B5B4A001B5B75004170702F
:104C8C003A2052656164790D0A0043616C693A20DF
:104C9C004F7574206F66206D656D6F72790D0A000B
:104CAC0043414C493A206461746120696E20464C42
:104CBC0041534820697320696E76616C69642C20BD
:104CCC006E65772063616C6962726174696F6E20C6
:104CDC006973206E65656465640D0A004E6F4461EE
:104CEC00746100496E76657274004F4B0043616CC1
:104CFC00693A2025732C204F46465345543D256C6C
:104D0C00642C20454E435F4D53453D256C752C203E
:104D1C004452565F4D53453D256C750D0A00656E2A
:104D2C00630043616C693A20656E636F6465722041
:104D3C00646174610D0A0025640D0A0064727600CA
:104D4C0043616C693A20647269766572206461749F
:104D5C00610D0A0073746172740043616C693A20CE
:104D6C004E6F7720746865206D6F746F7220736856
:104D7C006F756C6420626520726F746174696E6704
:104D8C000D0A0043616C693A2041626F72740D0A1E
:104D9C000043616C693A204661696C656420746FEC
:104DAC0020777269746520464C4153480D0A0043C4
:104DBC00616C693A20446F6E652C20464C41534817
:104DCC0020697320757064617465642C20454E43B2
:104DDC005F4D53453D256C752C204452565F4D5309
:104DEC00453D256C750D0A00746573740043616C48
:104DFC00693A20446F2063616C6962726174696FF7
:104E0C006E2066697273740D0A0043616C693A20F6
:104E1C00466F6C6C6F77696E672069732065727270
:104E2C006F7220646174610D0A0043616C693A20F1
:104E3C00446F6E652C20544F54414C5F4D53453D8F
:104E4C00256C750D0A0043616C693A203C656E63F4
:104E5C003E203C6472763E203C73746172743E203A
:104E6C003C746573743E0D0A0063616C6900636188
:104E7C006C6962726174696F6E0080310C34E83455
:104E8C000C348031E5325A3382335A33E5326D6F4C
:104E9C00746F722064726976657200000000C9003C
:104EAC0092015B022403ED03B6047F05480611074B
:104EBC00DA07A3086C09350AFE0AC70B900C580DCB
:104ECC00210EEA0EB30F7B1044110D12D5129E1356
:104EDC0066142E15F715BF1687174F181819E019F9
:104EEC00A81A701B371CFF1CC71D8F1E561F1E20B7
:104EFC00E520AC2174223B230224C924902557269B
:104F0C001E27E427AB287129382AFE2AC42B8A2CA9
:104F1C00502D162EDC2EA12F67302C31F131B632EC
:104F2C007B3340340535CA358E3653371738DB386A
:104F3C009F39633A263BEA3BAD3C713D343EF73E2C
:104F4C00B93F7C403F410142C34285434744094538
:104F5C00CA458C464D470E48CF488F49504A104B96
:104F6C00D04B904C504D104ECF4E8E4F4D500C514F
:104F7C00CB51895247530554C35481553E56FB5669
:104F8C00B85775583259EE59AA5A665B225CDD5CEB
:104F9C00985D535E0E5FC95F83603D61F761B162DE
:104FAC006A632364DC6495654D660667BD67756846
:104FBC002D69E4699B6A516B086CBE6C746D296E2B
:104FCC00DF6E946F4970FD70B27166721973CD7398
:104FDC0080743375E57598764A77FC77AD785E7991
:104FEC000F7AC07A707B207CD07C7F7D2E7EDD7E1C
:104FFC008B7F3A80E78095814282EF829C83488444
:10500C00F484A0854B86F686A1874B88F5889F890A
:10501C00488AF18A9A8B428CEA8C928D398EE08E7A
:10502C00878F2D90D39079911E92C39268930C9494
:10503C00B0945395F69599963B97DD977F98209968
:10504C00C199629A029BA29B419CE19C7F9D1E9EF2
:10505C00BB9E599FF69F93A02FA1CBA167A202A341
:10506C009DA337A4D2A46BA504A69DA636A7CEA754
:10507C0065A8FDA893A92AAAC0AA55ABEBAB7FAC37
:10508C0014ADA8AD3BAECEAE61AFF3AF85B016B1EB
:10509C00A7B138B2C8B258B3E7B376B404B592B579
:1050AC0020B6ADB639B7C6B751B8DDB868B9F2B9E4
:1050BC007CBA05BB8EBB17BC9FBC27BDAEBD35BE35
:1050CC00BBBE41BFC7BF4CC0D0C054C1D8C15BC26E
:1050DC00DDC260C3E1C362C4E3C463C5E3C563C698
:1050EC00E1C660C7DEC75BC8D8C854C9D0C94CCAB2
:1050FC00C7CA41CBBBCB35CCAECC26CD9ECD16CEC4
:10510C008DCE03CF79CFEFCF64D0D8D04CD1C0D1D6
:10511C0033D2A5D217D389D3FAD36AD4DAD44AD5E9
:10512C00B9D527D695D602D76FD7DCD747D8B3D801
:10513C001ED988D9F2D95BDAC3DA2CDB93DBFADB24
:10514C0061DCC7DC2CDD91DDF6DD5ADEBDDE20DF57
:10515C0082DFE4DF45E0A6E006E166E1C5E123E29B
:10516C0081E2DFE23BE398E3F4E34FE4A9E404E5F6
:10517C005DE5B6E50FE667E6BEE615E76BE7C1E76A
:10518C0016E86AE8BEE812E965E9B7E909EA5AEAFD
:10519C00ABEAFBEA4AEB99EBE7EB35EC82ECCFECB4
:1051AC001BED67EDB2EDFCED46EE8FEED8EE20EF89
:1051BC0067EFAEEFF5EF3AF07FF0C4F008F14CF189
:1051CC008EF1D1F112F253F294F2D4F213F352F3B2
:1051DC0090F3CEF30BF447F483F4BEF4F9F433F507
:1051EC006DF5A6F5DEF516F64DF683F6B9F6EEF688
:1051FC0023F757F78BF7BEF7F0F722F853F884F83C
:10520C00B4F8E3F812F940F96DF99AF9C7F9F2F923
:10521C001EFA48FA72FA9BFAC4FAECFA14FB3BFB3E
:10522C0061FB87FBACFBD0FBF4FB17FC3AFC5CFC92
:10523C007EFC9FFCBFFCDEFCFDFC1CFD3AFD57FD1B
:10524C0073FD8FFDABFDC6FDE0FDF9FD12FE2AFEE0
:10525C0042FE59FE70FE86FE9BFEAFFEC3FED7FEDD
:10526C00EAFEFCFE0DFF1EFF2FFF3EFF4DFF5CFF15
:10527C006AFF77FF84FF90FF9BFFA6FFB0FFBAFF8A
:10528C00C3FFCBFFD3FFDAFFE0FFE6FFEBFFF0FF3E
:10529C00F4FFF7FFFAFFFCFFFEFFFFFFFFFF556E69
:1052AC006B6E6F776E0025733A204E6F206D656DB7
:1052BC006F72790D0A0025733A20466F6C6C6F770C
:1052CC00696E6720697320746573742064617461FE
:1052DC000D0A00256C642C20256C640D0A004D4FC2
:1052EC00444552415445005745414B004C4F535493
:1052FC00005354524F4E47004F5645520000000089
:10530C00EA520008F3520008F8520008FD52000857
:10531C00045300084D54363730313A20436F6E66D3
:10532C00696775726174696F6E206661696C65641A
:10533C000D0A004D54363730313A2025732C20504D
:10534C004F533D30782530386C582C204D41473D1B
:10535C003078256C582C20485953543D256C6420CA
:10536C00282573290D0A0068797374004D5436375B
:10537C0030313A20485953543D256C64202825730C
:10538C00290D0A0073617665004D54363730313A79
:10539C0020436F6E66696775726174696F6E206900
:1053AC007320736176656420746F20464C415348BA
:1053BC000D0A004D54363730313A204661696C6520
:1053CC006420746F20777269746520464C41534891
:1053DC000D0A004D54363730313A203C68797374DD
:1053EC00205B302D375D3E203C736176653E203C62
:1053FC00746573743E0D0A006D6F746F7220656E68
:10540C00636F646572204D543637303100314C5324
:10541C004200324C534200344C534200384C5342FD
:10542C0000304C534200302E32354C534200302E5B
:10543C00354C534200456E636F646572000000008A
:10544C0040290000E02E000040380000A041000080
:10545C00C0210000C0210000802500004029000070
:10546C00456E763A205643433D256C642C205445BA
:10547C004D503D256C640D0A00656E760073686FA7
:10548C007720776F726B696E6720656E7669726FC5
:10549C006E6D656E74004869676854656D70005276
:1054AC00533438353A20434D443D222573220D0A9E
:1054BC000052533438353A2025732C20504F533D2D
:1054CC00256C642C2049443D256C642C20424155AC
:1054DC00443D256C750D0A0052533438353A205032
:1054EC004F533D256C640D0A0061646400636F6E5C
:1054FC00660052533438353A20436F6E66696775CF
:10550C00726174696F6E20697320736176656420B3
:10551C00746F20464C4153480D0A005253343835B1
:10552C003A204661696C656420746F2077726974E7
:10553C006520464C4153480D0A0052533438353AD5
:10554C00203C736574205B706F733A2B2D325E3385
:10555C00315D3E203C616464205B706F733A2B2D8F
:10556C00325E33315D3E203C636F6E66205B696456
:10557C003A302D38305D205B626175643A393630D3
:10558C00302D333030303030305D3E0D0A007B0032
:10559C007C007D007A0044697361626C6500456E25
:1055AC0061626C6500547261636B00464F43006925
:1055BC006E7000525334383520696E7465726661B2
:1055CC00636500456D657267656E63790000000068
:1055DC00A2550008AA550008AA520008AA520008B1
:1055EC00AA520008AA520008AA520008AA5200089F
:1055FC00AA520008AA520008AA520008AA5200088F
:10560C00AA520008AA520008AA520008AA5200087E
:10561C00B1550008B7550008000102030607040540
:10562C0000010204050608090A10111214151618B7
:10563C00191A20212224252628292A404142444592
:10564C004648494A50515254555658595A6061620D
:10565C0064656668696A80818284858688898A9097
:10566C00919294959698999AA0A1A2A4A5A6A8A95E
:10567C00AA00000204066C6564004D6F74696F6EBD
:10568C003A2025732C20444946463D256C642C2039
:10569C004355523D256C752C204D53544550533D6C
:1056AC0025750D0A00646973004D6F74696F6E3A4D
:1056BC002025730D0A004D6F74696F6E3A204E6F82
:1056CC0020636F6E74726F6C6C65722069732065E9
:1056DC006E61626C65640D0A004D6F74696F6E3A91
:1056EC00204E6F206D656D6F72790D0A004D6F74D1
:1056FC00696F6E3A20466F6C6C6F77696E672069C4
:10570C0073206572726F7220646174610D0A00639C
:10571C006F6566004D6F74696F6E3A204B503D2576
:10572C006C752C204B493D256C642C204B44453D1D
:10573C00256C642C204B44493D256C640D0A007685
:10574C00616C004D6F74696F6E3A20564F3D256C3D
:10575C00642C2056503D256C642C2056493D256CFC
:10576C00642C205644453D256C642C205644493D00
:10577C00256C640D0A0074726163650070696400C5
:10578C004D6F74696F6E3A203C6469733E203C63C4
:10579C006F65663E203C76616C3E203C746573748C
:1057AC00205B74696D65725D205B73746570735DED
:1057BC003E203C7472616365205B6572727C70691B
:1057CC00645D3E0D0A004D6F74696F6E3A20455250
:1057DC00523D256C642C205441523D256C642C2088
:1057EC00504F533D256C642C204452563D256C641F
:1057FC002C204355523D256C750D0A00426C6F638D
:10580C006B6564004C6F737400486F6D6500557068
:10581C004C696D697400446F776E4C696D697400E6
:10582C006D6F7400636F6D6D6F6E206D6F74696F4B
:10583C006E20636F6E74726F6C000000A2550008CE
:10584C00AA550008085800081058000815580008F8
:10585C001A58000822580008464F433A2025732C4A
:10586C0020444946463D256C642C204355523D2529
:10587C006C752C204D53544550533D25752C204DA3
:10588C00433D256C642C204B503D256C642C2054DE
:10589C00493D256C642C2054443D256C642C204BD4
:1058AC00463D256C640D0A00656E00464F433A2058
:1058BC0025730D0A006D6300464F433A204D433D5E
:1058CC00256C642C204D435F4445463D256C640D8E
:1058DC000A006B7000464F433A204B503D256C64D8
:1058EC002C204B505F4445463D256C642C20435086
:1058FC003D256C640D0A00746900464F433A2054F0
:10590C00493D256C642C2054495F4445463D256C2B
:10591C00642C2043493D256C640D0A0074640046D8
:10592C004F433A2054443D256C642C2054445F442E
:10593C0045463D256C642C204344453D256C642C28
:10594C00204344493D256C640D0A006B6600464FAC
:10595C00433A204B463D256C642C204B465F444516
:10596C00463D256C642C204344493D256C640D0A4E
:10597C0000464F433A20436F6E66696775726174D7
:10598C00696F6E20697320736176656420746F2073
:10599C00464C4153480D0A00464F433A2046616934
:1059AC006C656420746F20777269746520464C4175
:1059BC0053480D0A00464F433A203C656E3E203C4E
:1059CC006469733E203C6D63205B302D3130303088
:1059DC005D3E203C6B70205B302D31303030305DC3
:1059EC003E203C7469205B302D31303030305D3ED0
:1059FC00203C7464205B302D31303030305D3E20E3
:105A0C003C6B66205B302D31303030305D3E203CBD
:105A1C00736176653E0D0A00666F6300464F432F37
:105A2C00504944206D6F74696F6E20636F6E747291
:105A3C006F6C00547261636B3A2025732C204449BF
:105A4C0046463D256C642C204355523D256C752CE7
:105A5C00204D53544550533D25752C204D433D2529
:105A6C006C642C2048433D256C640D0A0054726113
:105A7C00636B3A2025730D0A00547261636B3A20F4
:105A8C004D433D256C642C204D435F4445463D25DC
:105A9C006C640D0A00686300547261636B3A2048B1
:105AAC00433D256C642C2048435F4445463D256CA2
:105ABC00640D0A00547261636B3A20436F6E666921
:105ACC006775726174696F6E206973207361766596
